
PAGE: (1:400)


BUFFER:


BUF @0x000002A50008E400

bpage = 0x000002A9E5494000          bPmmpage = 0x0000000000000000       bsort_r_nextbP = 0x000002A50008E350
bsort_r_prevbP = 0x0000000000000000 bhash = 0x0000000000000000          bpageno = (1:400)
bpart = 2                           ckptGen = 0x0000000000000000        bDirtyRefCount = 0
bstat = 0x109                       breferences = 0                     berrcode = 0
bUse1 = 53480                       bstat2 = 0x0                        blog = 0xadb21c9a
bsampleCount = 0                    bIoCount = 0                        resPoolId = 0
bcputicks = 0                       bReadMicroSec = 0                   bDirtyContext = 0x0000000000000000
bDbPageBroker = 0x0000000000000000  bdbid = 11                          bpru = 0x000002A9E2A18040

PAGE HEADER:


Page @0x000002A9E5494000

m_pageId = (1:400)                  m_headerVersion = 1                 m_type = 1
m_typeFlagBits = 0x0                m_level = 0                         m_flagBits = 0x220
m_objId (AllocUnitId.idObj) = 205   m_indexId (AllocUnitId.idInd) = 256 
Metadata: AllocUnitId = 72057594051362816                                
Metadata: PartitionId = 72057594044612608                                Metadata: IndexId = 1
Metadata: ObjectId = 1253579504     m_prevPage = (1:8480)               m_nextPage = (1:401)
pminlen = 1013                      m_slotCnt = 2                       m_freeCnt = 2020
m_freeData = 6168                   m_reservedCnt = 0                   m_lsn = (328:296:81)
m_xactReserved = 0                  m_xdesId = (0:33305)                m_ghostRecCnt = 0
m_tornBits = -514038057             DB Frag ID = 1                      

Allocation Status

GAM (1:2) = ALLOCATED               SGAM (1:3) = NOT ALLOCATED          PFS (1:1) = 0x40 ALLOCATED   0_PCT_FULL
DIFF (1:6) = CHANGED                ML (1:7) = NOT MIN_LOGGED           

Slot 0 Offset 0x60 Length 5046

Record Type = PRIMARY_RECORD        Record Attributes =  NULL_BITMAP VARIABLE_COLUMNS
Record Size = 5046                  
Memory Dump @0x000000C8DD7F8060

0000000000000000:   3000f503 04000000 61202020 20202020 20202020  0.õ.....a           
0000000000000014:   20202020 20202020 20202020 20202020 20202020                      
0000000000000028:   20202020 20202020 20202020 20202020 20202020                      
000000000000003C:   20202020 20202020 20202020 20202020 20202020                      
0000000000000050:   20202020 20202020 20202020 20202020 20202020                      
0000000000000064:   20202020 20202020 20202020 20202020 20202020                      
0000000000000078:   20202020 20202020 20202020 20202020 20202020                      
000000000000008C:   20202020 20202020 20202020 20202020 20202020                      
00000000000000A0:   20202020 20202020 20202020 20202020 20202020                      
00000000000000B4:   20202020 20202020 20202020 20202020 20202020                      
00000000000000C8:   20202020 20202020 20202020 20202020 20202020                      
00000000000000DC:   20202020 20202020 20202020 20202020 20202020                      
00000000000000F0:   20202020 20202020 20202020 20202020 20202020                      
0000000000000104:   20202020 20202020 20202020 20202020 20202020                      
0000000000000118:   20202020 20202020 20202020 20202020 20202020                      
000000000000012C:   20202020 20202020 20202020 20202020 20202020                      
0000000000000140:   20202020 20202020 20202020 20202020 20202020                      
0000000000000154:   20202020 20202020 20202020 20202020 20202020                      
0000000000000168:   20202020 20202020 20202020 20202020 20202020                      
000000000000017C:   20202020 20202020 20202020 20202020 20202020                      
0000000000000190:   20202020 20202020 20202020 20202020 20202020                      
00000000000001A4:   20202020 20202020 20202020 20202020 20202020                      
00000000000001B8:   20202020 20202020 20202020 20202020 20202020                      
00000000000001CC:   20202020 20202020 20202020 20202020 20202020                      
00000000000001E0:   20202020 20202020 20202020 20202020 20202020                      
00000000000001F4:   20202020 20202020 20202020 20202020 20202020                      
0000000000000208:   20202020 20202020 20202020 20202020 20202020                      
000000000000021C:   20202020 20202020 20202020 20202020 20202020                      
0000000000000230:   20202020 20202020 20202020 20202020 20202020                      
0000000000000244:   20202020 20202020 20202020 20202020 20202020                      
0000000000000258:   20202020 20202020 20202020 20202020 20202020                      
000000000000026C:   20202020 20202020 20202020 20202020 20202020                      
0000000000000280:   20202020 20202020 20202020 20202020 20202020                      
0000000000000294:   20202020 20202020 20202020 20202020 20202020                      
00000000000002A8:   20202020 20202020 20202020 20202020 20202020                      
00000000000002BC:   20202020 20202020 20202020 20202020 20202020                      
00000000000002D0:   20202020 20202020 20202020 20202020 20202020                      
00000000000002E4:   20202020 20202020 20202020 20202020 20202020                      
00000000000002F8:   20202020 20202020 20202020 20202020 20202020                      
000000000000030C:   20202020 20202020 20202020 20202020 20202020                      
0000000000000320:   20202020 20202020 20202020 20202020 20202020                      
0000000000000334:   20202020 20202020 20202020 20202020 20202020                      
0000000000000348:   20202020 20202020 20202020 20202020 20202020                      
000000000000035C:   20202020 20202020 20202020 20202020 20202020                      
0000000000000370:   20202020 20202020 20202020 20202020 20202020                      
0000000000000384:   20202020 20202020 20202020 20202020 20202020                      
0000000000000398:   20202020 20202020 20202020 20202020 20202020                      
00000000000003AC:   20202020 20202020 20202020 20202020 20202020                      
00000000000003C0:   20202020 20202020 20202020 20202020 20202020                      
00000000000003D4:   20202020 20202020 20202020 20202020 20202020                      
00000000000003E8:   20202020 20202020 01180100 00050000 02009e13          ...........
00000000000003FC:   b6936500 65006500 65006500 65006500 65006500  ¶e.e.e.e.e.e.e.e.e.
0000000000000410:   65006500 65006500 65006500 65006500 65006500  e.e.e.e.e.e.e.e.e.e.
0000000000000424:   65006500 65006500 65006500 65006500 65006500  e.e.e.e.e.e.e.e.e.e.
0000000000000438:   65006500 65006500 65006500 65006500 65006500  e.e.e.e.e.e.e.e.e.e.
000000000000044C:   65006500 65006500 65006500 65006500 65006500  e.e.e.e.e.e.e.e.e.e.
0000000000000460:   65006500 65006500 65006500 65006500 65006500  e.e.e.e.e.e.e.e.e.e.
0000000000000474:   65006500 65006500 65006500 65006500 65006500  e.e.e.e.e.e.e.e.e.e.
0000000000000488:   65006500 65006500 65006500 65006500 65006500  e.e.e.e.e.e.e.e.e.e.
000000000000049C:   65006500 65006500 65006500 65006500 65006500  e.e.e.e.e.e.e.e.e.e.
00000000000004B0:   65006500 65006500 65006500 65006500 65006500  e.e.e.e.e.e.e.e.e.e.
00000000000004C4:   65006500 65006500 65006500 65006500 65006500  e.e.e.e.e.e.e.e.e.e.
00000000000004D8:   65006500 65006500 65006500 65006500 65006500  e.e.e.e.e.e.e.e.e.e.
00000000000004EC:   65006500 65006500 65006500 65006500 65006500  e.e.e.e.e.e.e.e.e.e.
0000000000000500:   65006500 65006500 65006500 65006500 65006500  e.e.e.e.e.e.e.e.e.e.
0000000000000514:   65006500 65006500 65006500 65006500 65006500  e.e.e.e.e.e.e.e.e.e.
0000000000000528:   65006500 65006500 65006500 65006500 65006500  e.e.e.e.e.e.e.e.e.e.
000000000000053C:   65006500 65006500 65006500 65006500 65006500  e.e.e.e.e.e.e.e.e.e.
0000000000000550:   65006500 65006500 65006500 65006500 65006500  e.e.e.e.e.e.e.e.e.e.
0000000000000564:   65006500 65006500 65006500 65006500 65006500  e.e.e.e.e.e.e.e.e.e.
0000000000000578:   65006500 65006500 65006500 65006500 65006500  e.e.e.e.e.e.e.e.e.e.
000000000000058C:   65006500 65006500 65006500 65006500 65006500  e.e.e.e.e.e.e.e.e.e.
00000000000005A0:   65006500 65006500 65006500 65006500 65006500  e.e.e.e.e.e.e.e.e.e.
00000000000005B4:   65006500 65006500 65006500 65006500 65006500  e.e.e.e.e.e.e.e.e.e.
00000000000005C8:   65006500 65006500 65006500 65006500 65006500  e.e.e.e.e.e.e.e.e.e.
00000000000005DC:   65006500 65006500 65006500 65006500 65006500  e.e.e.e.e.e.e.e.e.e.
00000000000005F0:   65006500 65006500 65006500 65006500 65006500  e.e.e.e.e.e.e.e.e.e.
0000000000000604:   65006500 65006500 65006500 65006500 65006500  e.e.e.e.e.e.e.e.e.e.
0000000000000618:   65006500 65006500 65006500 65006500 65006500  e.e.e.e.e.e.e.e.e.e.
000000000000062C:   65006500 65006500 65006500 65006500 65006500  e.e.e.e.e.e.e.e.e.e.
0000000000000640:   65006500 65006500 65006500 65006500 65006500  e.e.e.e.e.e.e.e.e.e.
0000000000000654:   65006500 65006500 65006500 65006500 65006500  e.e.e.e.e.e.e.e.e.e.
0000000000000668:   65006500 65006500 65006500 65006500 65006500  e.e.e.e.e.e.e.e.e.e.
000000000000067C:   65006500 65006500 65006500 65006500 65006500  e.e.e.e.e.e.e.e.e.e.
0000000000000690:   65006500 65006500 65006500 65006500 65006500  e.e.e.e.e.e.e.e.e.e.
00000000000006A4:   65006500 65006500 65006500 65006500 65006500  e.e.e.e.e.e.e.e.e.e.
00000000000006B8:   65006500 65006500 65006500 65006500 65006500  e.e.e.e.e.e.e.e.e.e.
00000000000006CC:   65006500 65006500 65006500 65006500 65006500  e.e.e.e.e.e.e.e.e.e.
00000000000006E0:   65006500 65006500 65006500 65006500 65006500  e.e.e.e.e.e.e.e.e.e.
00000000000006F4:   65006500 65006500 65006500 65006500 65006500  e.e.e.e.e.e.e.e.e.e.
0000000000000708:   65006500 65006500 65006500 65006500 65006500  e.e.e.e.e.e.e.e.e.e.
000000000000071C:   65006500 65006500 65006500 65006500 65006500  e.e.e.e.e.e.e.e.e.e.
0000000000000730:   65006500 65006500 65006500 65006500 65006500  e.e.e.e.e.e.e.e.e.e.
0000000000000744:   65006500 65006500 65006500 65006500 65006500  e.e.e.e.e.e.e.e.e.e.
0000000000000758:   65006500 65006500 65006500 65006500 65006500  e.e.e.e.e.e.e.e.e.e.
000000000000076C:   65006500 65006500 65006500 65006500 65006500  e.e.e.e.e.e.e.e.e.e.
0000000000000780:   65006500 65006500 65006500 65006500 65006500  e.e.e.e.e.e.e.e.e.e.
0000000000000794:   65006500 65006500 65006500 65006500 65006500  e.e.e.e.e.e.e.e.e.e.
00000000000007A8:   65006500 65006500 65006500 65006500 65006500  e.e.e.e.e.e.e.e.e.e.
00000000000007BC:   65006500 65006500 65006500 65006500 65006500  e.e.e.e.e.e.e.e.e.e.
00000000000007D0:   65006500 65006500 65006500 65006500 65006500  e.e.e.e.e.e.e.e.e.e.
00000000000007E4:   65006500 65006500 65006500 65006500 65006500  e.e.e.e.e.e.e.e.e.e.
00000000000007F8:   65006500 65006500 65006500 65006500 65006500  e.e.e.e.e.e.e.e.e.e.
000000000000080C:   65006500 65006500 65006500 65006500 65006500  e.e.e.e.e.e.e.e.e.e.
0000000000000820:   65006500 65006500 65006500 65006500 65006500  e.e.e.e.e.e.e.e.e.e.
0000000000000834:   65006500 65006500 65006500 65006500 65006500  e.e.e.e.e.e.e.e.e.e.
0000000000000848:   65006500 65006500 65006500 65006500 65006500  e.e.e.e.e.e.e.e.e.e.
000000000000085C:   65006500 65006500 65006500 65006500 65006500  e.e.e.e.e.e.e.e.e.e.
0000000000000870:   65006500 65006500 65006500 65006500 65006500  e.e.e.e.e.e.e.e.e.e.
0000000000000884:   65006500 65006500 65006500 65006500 65006500  e.e.e.e.e.e.e.e.e.e.
0000000000000898:   65006500 65006500 65006500 65006500 65006500  e.e.e.e.e.e.e.e.e.e.
00000000000008AC:   65006500 65006500 65006500 65006500 65006500  e.e.e.e.e.e.e.e.e.e.
00000000000008C0:   65006500 65006500 65006500 65006500 65006500  e.e.e.e.e.e.e.e.e.e.
00000000000008D4:   65006500 65006500 65006500 65006500 65006500  e.e.e.e.e.e.e.e.e.e.
00000000000008E8:   65006500 65006500 65006500 65006500 65006500  e.e.e.e.e.e.e.e.e.e.
00000000000008FC:   65006500 65006500 65006500 65006500 65006500  e.e.e.e.e.e.e.e.e.e.
0000000000000910:   65006500 65006500 65006500 65006500 65006500  e.e.e.e.e.e.e.e.e.e.
0000000000000924:   65006500 65006500 65006500 65006500 65006500  e.e.e.e.e.e.e.e.e.e.
0000000000000938:   65006500 65006500 65006500 65006500 65006500  e.e.e.e.e.e.e.e.e.e.
000000000000094C:   65006500 65006500 65006500 65006500 65006500  e.e.e.e.e.e.e.e.e.e.
0000000000000960:   65006500 65006500 65006500 65006500 65006500  e.e.e.e.e.e.e.e.e.e.
0000000000000974:   65006500 65006500 65006500 65006500 65006500  e.e.e.e.e.e.e.e.e.e.
0000000000000988:   65006500 65006500 65006500 65006500 65006500  e.e.e.e.e.e.e.e.e.e.
000000000000099C:   65006500 65006500 65006500 65006500 65006500  e.e.e.e.e.e.e.e.e.e.
00000000000009B0:   65006500 65006500 65006500 65006500 65006500  e.e.e.e.e.e.e.e.e.e.
00000000000009C4:   65006500 65006500 65006500 65006500 65006500  e.e.e.e.e.e.e.e.e.e.
00000000000009D8:   65006500 65006500 65006500 65006500 65006500  e.e.e.e.e.e.e.e.e.e.
00000000000009EC:   65006500 65006500 65006500 65006500 65006500  e.e.e.e.e.e.e.e.e.e.
0000000000000A00:   65006500 65006500 65006500 65006500 65006500  e.e.e.e.e.e.e.e.e.e.
0000000000000A14:   65006500 65006500 65006500 65006500 65006500  e.e.e.e.e.e.e.e.e.e.
0000000000000A28:   65006500 65006500 65006500 65006500 65006500  e.e.e.e.e.e.e.e.e.e.
0000000000000A3C:   65006500 65006500 65006500 65006500 65006500  e.e.e.e.e.e.e.e.e.e.
0000000000000A50:   65006500 65006500 65006500 65006500 65006500  e.e.e.e.e.e.e.e.e.e.
0000000000000A64:   65006500 65006500 65006500 65006500 65006500  e.e.e.e.e.e.e.e.e.e.
0000000000000A78:   65006500 65006500 65006500 65006500 65006500  e.e.e.e.e.e.e.e.e.e.
0000000000000A8C:   65006500 65006500 65006500 65006500 65006500  e.e.e.e.e.e.e.e.e.e.
0000000000000AA0:   65006500 65006500 65006500 65006500 65006500  e.e.e.e.e.e.e.e.e.e.
0000000000000AB4:   65006500 65006500 65006500 65006500 65006500  e.e.e.e.e.e.e.e.e.e.
0000000000000AC8:   65006500 65006500 65006500 65006500 65006500  e.e.e.e.e.e.e.e.e.e.
0000000000000ADC:   65006500 65006500 65006500 65006500 65006500  e.e.e.e.e.e.e.e.e.e.
0000000000000AF0:   65006500 65006500 65006500 65006500 65006500  e.e.e.e.e.e.e.e.e.e.
0000000000000B04:   65006500 65006500 65006500 65006500 65006500  e.e.e.e.e.e.e.e.e.e.
0000000000000B18:   65006500 65006500 65006500 65006500 65006500  e.e.e.e.e.e.e.e.e.e.
0000000000000B2C:   65006500 65006500 65006500 65006500 65006500  e.e.e.e.e.e.e.e.e.e.
0000000000000B40:   65006500 65006500 65006500 65006500 65006500  e.e.e.e.e.e.e.e.e.e.
0000000000000B54:   65006500 65006500 65006500 65006500 65006500  e.e.e.e.e.e.e.e.e.e.
0000000000000B68:   65006500 65006500 65006500 65006500 65006500  e.e.e.e.e.e.e.e.e.e.
0000000000000B7C:   65006500 65006500 65006500 65006500 65006500  e.e.e.e.e.e.e.e.e.e.
0000000000000B90:   65006500 65006500 65006500 65006500 65006500  e.e.e.e.e.e.e.e.e.e.
0000000000000BA4:   65006500 65006500 65006500 65006500 65006500  e.e.e.e.e.e.e.e.e.e.
0000000000000BB8:   65006500 65006500 65006500 65006500 65006500  e.e.e.e.e.e.e.e.e.e.
0000000000000BCC:   65006500 65006500 65006500 65006500 65006500  e.e.e.e.e.e.e.e.e.e.
0000000000000BE0:   65006500 65006500 65006500 65006500 65006500  e.e.e.e.e.e.e.e.e.e.
0000000000000BF4:   65006500 65006500 65006500 65006500 65006500  e.e.e.e.e.e.e.e.e.e.
0000000000000C08:   65006500 65006500 65006500 65006500 65006500  e.e.e.e.e.e.e.e.e.e.
0000000000000C1C:   65006500 65006500 65006500 65006500 65006500  e.e.e.e.e.e.e.e.e.e.
0000000000000C30:   65006500 65006500 65006500 65006500 65006500  e.e.e.e.e.e.e.e.e.e.
0000000000000C44:   65006500 65006500 65006500 65006500 65006500  e.e.e.e.e.e.e.e.e.e.
0000000000000C58:   65006500 65006500 65006500 65006500 65006500  e.e.e.e.e.e.e.e.e.e.
0000000000000C6C:   65006500 65006500 65006500 65006500 65006500  e.e.e.e.e.e.e.e.e.e.
0000000000000C80:   65006500 65006500 65006500 65006500 65006500  e.e.e.e.e.e.e.e.e.e.
0000000000000C94:   65006500 65006500 65006500 65006500 65006500  e.e.e.e.e.e.e.e.e.e.
0000000000000CA8:   65006500 65006500 65006500 65006500 65006500  e.e.e.e.e.e.e.e.e.e.
0000000000000CBC:   65006500 65006500 65006500 65006500 65006500  e.e.e.e.e.e.e.e.e.e.
0000000000000CD0:   65006500 65006500 65006500 65006500 65006500  e.e.e.e.e.e.e.e.e.e.
0000000000000CE4:   65006500 65006500 65006500 65006500 65006500  e.e.e.e.e.e.e.e.e.e.
0000000000000CF8:   65006500 65006500 65006500 65006500 65006500  e.e.e.e.e.e.e.e.e.e.
0000000000000D0C:   65006500 65006500 65006500 65006500 65006500  e.e.e.e.e.e.e.e.e.e.
0000000000000D20:   65006500 65006500 65006500 65006500 65006500  e.e.e.e.e.e.e.e.e.e.
0000000000000D34:   65006500 65006500 65006500 65006500 65006500  e.e.e.e.e.e.e.e.e.e.
0000000000000D48:   65006500 65006500 65006500 65006500 65006500  e.e.e.e.e.e.e.e.e.e.
0000000000000D5C:   65006500 65006500 65006500 65006500 65006500  e.e.e.e.e.e.e.e.e.e.
0000000000000D70:   65006500 65006500 65006500 65006500 65006500  e.e.e.e.e.e.e.e.e.e.
0000000000000D84:   65006500 65006500 65006500 65006500 65006500  e.e.e.e.e.e.e.e.e.e.
0000000000000D98:   65006500 65006500 65006500 65006500 65006500  e.e.e.e.e.e.e.e.e.e.
0000000000000DAC:   65006500 65006500 65006500 65006500 65006500  e.e.e.e.e.e.e.e.e.e.
0000000000000DC0:   65006500 65006500 65006500 65006500 65006500  e.e.e.e.e.e.e.e.e.e.
0000000000000DD4:   65006500 65006500 65006500 65006500 65006500  e.e.e.e.e.e.e.e.e.e.
0000000000000DE8:   65006500 65006500 65006500 65006500 65006500  e.e.e.e.e.e.e.e.e.e.
0000000000000DFC:   65006500 65006500 65006500 65006500 65006500  e.e.e.e.e.e.e.e.e.e.
0000000000000E10:   65006500 65006500 65006500 65006500 65006500  e.e.e.e.e.e.e.e.e.e.
0000000000000E24:   65006500 65006500 65006500 65006500 65006500  e.e.e.e.e.e.e.e.e.e.
0000000000000E38:   65006500 65006500 65006500 65006500 65006500  e.e.e.e.e.e.e.e.e.e.
0000000000000E4C:   65006500 65006500 65006500 65006500 65006500  e.e.e.e.e.e.e.e.e.e.
0000000000000E60:   65006500 65006500 65006500 65006500 65006500  e.e.e.e.e.e.e.e.e.e.
0000000000000E74:   65006500 65006500 65006500 65006500 65006500  e.e.e.e.e.e.e.e.e.e.
0000000000000E88:   65006500 65006500 65006500 65006500 65006500  e.e.e.e.e.e.e.e.e.e.
0000000000000E9C:   65006500 65006500 65006500 65006500 65006500  e.e.e.e.e.e.e.e.e.e.
0000000000000EB0:   65006500 65006500 65006500 65006500 65006500  e.e.e.e.e.e.e.e.e.e.
0000000000000EC4:   65006500 65006500 65006500 65006500 65006500  e.e.e.e.e.e.e.e.e.e.
0000000000000ED8:   65006500 65006500 65006500 65006500 65006500  e.e.e.e.e.e.e.e.e.e.
0000000000000EEC:   65006500 65006500 65006500 65006500 65006500  e.e.e.e.e.e.e.e.e.e.
0000000000000F00:   65006500 65006500 65006500 65006500 65006500  e.e.e.e.e.e.e.e.e.e.
0000000000000F14:   65006500 65006500 65006500 65006500 65006500  e.e.e.e.e.e.e.e.e.e.
0000000000000F28:   65006500 65006500 65006500 65006500 65006500  e.e.e.e.e.e.e.e.e.e.
0000000000000F3C:   65006500 65006500 65006500 65006500 65006500  e.e.e.e.e.e.e.e.e.e.
0000000000000F50:   65006500 65006500 65006500 65006500 65006500  e.e.e.e.e.e.e.e.e.e.
0000000000000F64:   65006500 65006500 65006500 65006500 65006500  e.e.e.e.e.e.e.e.e.e.
0000000000000F78:   65006500 65006500 65006500 65006500 65006500  e.e.e.e.e.e.e.e.e.e.
0000000000000F8C:   65006500 65006500 65006500 65006500 65006500  e.e.e.e.e.e.e.e.e.e.
0000000000000FA0:   65006500 65006500 65006500 65006500 65006500  e.e.e.e.e.e.e.e.e.e.
0000000000000FB4:   65006500 65006500 65006500 65006500 65006500  e.e.e.e.e.e.e.e.e.e.
0000000000000FC8:   65006500 65006500 65006500 65006500 65006500  e.e.e.e.e.e.e.e.e.e.
0000000000000FDC:   65006500 65006500 65006500 65006500 65006500  e.e.e.e.e.e.e.e.e.e.
0000000000000FF0:   65006500 65006500 65006500 65006500 65006500  e.e.e.e.e.e.e.e.e.e.
0000000000001004:   65006500 65006500 65006500 65006500 65006500  e.e.e.e.e.e.e.e.e.e.
0000000000001018:   65006500 65006500 65006500 65006500 65006500  e.e.e.e.e.e.e.e.e.e.
000000000000102C:   65006500 65006500 65006500 65006500 65006500  e.e.e.e.e.e.e.e.e.e.
0000000000001040:   65006500 65006500 65006500 65006500 65006500  e.e.e.e.e.e.e.e.e.e.
0000000000001054:   65006500 65006500 65006500 65006500 65006500  e.e.e.e.e.e.e.e.e.e.
0000000000001068:   65006500 65006500 65006500 65006500 65006500  e.e.e.e.e.e.e.e.e.e.
000000000000107C:   65006500 65006500 65006500 65006500 65006500  e.e.e.e.e.e.e.e.e.e.
0000000000001090:   65006500 65006500 65006500 65006500 65006500  e.e.e.e.e.e.e.e.e.e.
00000000000010A4:   65006500 65006500 65006500 65006500 65006500  e.e.e.e.e.e.e.e.e.e.
00000000000010B8:   65006500 65006500 65006500 65006500 65006500  e.e.e.e.e.e.e.e.e.e.
00000000000010CC:   65006500 65006500 65006500 65006500 65006500  e.e.e.e.e.e.e.e.e.e.
00000000000010E0:   65006500 65006500 65006500 65006500 65006500  e.e.e.e.e.e.e.e.e.e.
00000000000010F4:   65006500 65006500 65006500 65006500 65006500  e.e.e.e.e.e.e.e.e.e.
0000000000001108:   65006500 65006500 65006500 65006500 65006500  e.e.e.e.e.e.e.e.e.e.
000000000000111C:   65006500 65006500 65006500 65006500 65006500  e.e.e.e.e.e.e.e.e.e.
0000000000001130:   65006500 65006500 65006500 65006500 65006500  e.e.e.e.e.e.e.e.e.e.
0000000000001144:   65006500 65006500 65006500 65006500 65006500  e.e.e.e.e.e.e.e.e.e.
0000000000001158:   65006500 65006500 65006500 65006500 65006500  e.e.e.e.e.e.e.e.e.e.
000000000000116C:   65006500 65006500 65006500 65006500 65006500  e.e.e.e.e.e.e.e.e.e.
0000000000001180:   65006500 65006500 65006500 65006500 65006500  e.e.e.e.e.e.e.e.e.e.
0000000000001194:   65006500 65006500 65006500 65006500 65006500  e.e.e.e.e.e.e.e.e.e.
00000000000011A8:   65006500 65006500 65006500 65006500 65006500  e.e.e.e.e.e.e.e.e.e.
00000000000011BC:   65006500 65006500 65006500 65006500 65006500  e.e.e.e.e.e.e.e.e.e.
00000000000011D0:   65006500 65006500 65006500 65006500 65006500  e.e.e.e.e.e.e.e.e.e.
00000000000011E4:   65006500 65006500 65006500 65006500 65006500  e.e.e.e.e.e.e.e.e.e.
00000000000011F8:   65006500 65006500 65006500 65006500 65006500  e.e.e.e.e.e.e.e.e.e.
000000000000120C:   65006500 65006500 65006500 65006500 65006500  e.e.e.e.e.e.e.e.e.e.
0000000000001220:   65006500 65006500 65006500 65006500 65006500  e.e.e.e.e.e.e.e.e.e.
0000000000001234:   65006500 65006500 65006500 65006500 65006500  e.e.e.e.e.e.e.e.e.e.
0000000000001248:   65006500 65006500 65006500 65006500 65006500  e.e.e.e.e.e.e.e.e.e.
000000000000125C:   65006500 65006500 65006500 65006500 65006500  e.e.e.e.e.e.e.e.e.e.
0000000000001270:   65006500 65006500 65006500 65006500 65006500  e.e.e.e.e.e.e.e.e.e.
0000000000001284:   65006500 65006500 65006500 65006500 65006500  e.e.e.e.e.e.e.e.e.e.
0000000000001298:   65006500 65006500 65006500 65006500 65006500  e.e.e.e.e.e.e.e.e.e.
00000000000012AC:   65006500 65006500 65006500 65006500 65006500  e.e.e.e.e.e.e.e.e.e.
00000000000012C0:   65006500 65006500 65006500 65006500 65006500  e.e.e.e.e.e.e.e.e.e.
00000000000012D4:   65006500 65006500 65006500 65006500 65006500  e.e.e.e.e.e.e.e.e.e.
00000000000012E8:   65006500 65006500 65006500 65006500 65006500  e.e.e.e.e.e.e.e.e.e.
00000000000012FC:   65006500 65006500 65006500 65006500 65006500  e.e.e.e.e.e.e.e.e.e.
0000000000001310:   65006500 65006500 65006500 65006500 65006500  e.e.e.e.e.e.e.e.e.e.
0000000000001324:   65006500 65006500 65006500 65006500 65006500  e.e.e.e.e.e.e.e.e.e.
0000000000001338:   65006500 65006500 65006500 65006500 65006500  e.e.e.e.e.e.e.e.e.e.
000000000000134C:   65006500 65006500 65006500 65006500 65006500  e.e.e.e.e.e.e.e.e.e.
0000000000001360:   65006500 65006500 65006500 65006500 65006500  e.e.e.e.e.e.e.e.e.e.
0000000000001374:   65006500 65006500 65006500 65006500 65006500  e.e.e.e.e.e.e.e.e.e.
0000000000001388:   65006500 65006500 65006500 65006500 65006500  e.e.e.e.e.e.e.e.e.e.
000000000000139C:   65000200 00000100 0000f14f 0000a00f 00008801  e.........ñO.. .....
00000000000013B0:   00000100 0100                                 ...... 

Slot 0 Column 1 Offset 0x4 Length 4 Length (physical) 4

x = 4                               

Slot 0 Column 2 Offset 0x8 Length 1000 Length (physical) 1000

a = a                                                                                                            
                                                                                                                 
                                                                                                                 
                                                                                                                 
                                                                                                                 
                                                                                                                 
                                                                                                                 
                                                                                                                 
                                                                                                    

Slot 0 Column 3 Offset 0x3fe Length 4000 Length (physical) 4000

y = eeeeeeeeeeeeeeeeeeeeeeeeeeeeeeeeeeeeeeeeeeeeeeeeeeeeeeeeeeeeeeeeeeeeeeeeeeeeeeeeeeeeeeeeeeeeeeeeeeeeeeeeeeeee
eeeeeeeeeeeeeeeeeeeeeeeeeeeeeeeeeeeeeeeeeeeeeeeeeeeeeeeeeeeeeeeeeeeeeeeeeeeeeeeeeeeeeeeeeeeeeeeeeeeeeeeeeeeeeeeee
eeeeeeeeeeeeeeeeeeeeeeeeeeeeeeeeeeeeeeeeeeeeeeeeeeeeeeeeeeeeeeeeeeeeeeeeeeeeeeeeeeeeeeeeeeeeeeeeeeeeeeeeeeeeeeeee
eeeeeeeeeeeeeeeeeeeeeeeeeeeeeeeeeeeeeeeeeeeeeeeeeeeeeeeeeeeeeeeeeeeeeeeeeeeeeeeeeeeeeeeeeeeeeeeeeeeeeeeeeeeeeeeee
eeeeeeeeeeeeeeeeeeeeeeeeeeeeeeeeeeeeeeeeeeeeeeeeeeeeeeeeeeeeeeeeeeeeeeeeeeeeeeeeeeeeeeeeeeeeeeeeeeeeeeeeeeeeeeeee
eeeeeeeeeeeeeeeeeeeeeeeeeeeeeeeeeeeeeeeeeeeeeeeeeeeeeeeeeeeeeeeeeeeeeeeeeeeeeeeeeeeeeeeeeeeeeeeeeeeeeeeeeeeeeeeee
eeeeeeeeeeeeeeeeeeeeeeeeeeeeeeeeeeeeeeeeeeeeeeeeeeeeeeeeeeeeeeeeeeeeeeeeeeeeeeeeeeeeeeeeeeeeeeeeeeeeeeeeeeeeeeeee
eeeeeeeeeeeeeeeeeeeeeeeeeeeeeeeeeeeeeeeeeeeeeeeeeeeeeeeeeeeeeeeeeeeeeeeeeeeeeeeeeeeeeeeeeeeeeeeeeeeeeeeeeeeeeeeee
eeeeeeeeeeeeeeeeeeeeeeeeeeeeeeeeeeeeeeeeeeeeeeeeeeeeeeeeeeeeeeeeeeeeeeeeeeeeeeeeeeeeeeeeeeeeeeeeeeeeeeeeeeeeeeeee
eeeeeeeeeeeeeeeeeeeeeeeeeeeeeeeeeeeeeeeeeeeeeeeeeeeeeeeeeeeeeeeeeeeeeeeeeeeeeeeeeeeeeeeeeeeeeeeeeeeeeeeeeeeeeeeee
eeeeeeeeeeeeeeeeeeeeeeeeeeeeeeeeeeeeeeeeeeeeeeeeeeeeeeeeeeeeeeeeeeeeeeeeeeeeeeeeeeeeeeeeeeeeeeeeeeeeeeeeeeeeeeeee
eeeeeeeeeeeeeeeeeeeeeeeeeeeeeeeeeeeeeeeeeeeeeeeeeeeeeeeeeeeeeeeeeeeeeeeeeeeeeeeeeeeeeeeeeeeeeeeeeeeeeeeeeeeeeeeee
eeeeeeeeeeeeeeeeeeeeeeeeeeeeeeeeeeeeeeeeeeeeeeeeeeeeeeeeeeeeeeeeeeeeeeeeeeeeeeeeeeeeeeeeeeeeeeeeeeeeeeeeeeeeeeeee
eeeeeeeeeeeeeeeeeeeeeeeeeeeeeeeeeeeeeeeeeeeeeeeeeeeeeeeeeeeeeeeeeeeeeeeeeeeeeeeeeeeeeeeeeeeeeeeeeeeeeeeeeeeeeeeee
eeeeeeeeeeeeeeeeeeeeeeeeeeeeeeeeeeeeeeeeeeeeeeeeeeeeeeeeeeeeeeeeeeeeeeeeeeeeeeeeeeeeeeeeeeeeeeeeeeeeeeeeeeeeeeeee
eeeeeeeeeeeeeeeeeeeeeeeeeeeeeeeeeeeeeeeeeeeeeeeeeeeeeeeeeeeeeeeeeeeeeeeeeeeeeeeeeeeeeeeeeeeeeeeeeeeeeeeeeeeeeeeee
eeeeeeeeeeeeeeeeeeeeeeeeeeeeeeeeeeeeeeeeeeeeeeeeeeeeeeeeeeeeeeeeeeeeeeeeeeeeeeeeeeeeeeeeeeeeeeeeeeeeeeeeeeeeeeeee
eeeeeeeeeeeeeeeeeeeeeeeeeeeeeeeeeeeeeeeeeeeeeeeeeeeeeeeeeeeeeeeeeeeeeeeeeeeeeeeeeee

y1 = [BLOB Inline Root] Slot 0 Column 4 Offset 0x139e Length 24 Length (physical) 24

Level = 0                           Unused = 0                          UpdateSeq = 1
TimeStamp = 1341194240              Type = 2                            
Link 0

Size = 4000                         RowId = (1:392:1)                   

Slot 0 Column 5 Offset 0x3f0 Length 5 Length (physical) 5

z = 2.80                            

Slot 0 Offset 0x0 Length 0 Length (physical) 0

KeyHashValue = (a0c936a3c965)       
Slot 1 Offset 0x1416 Length 1026

Record Type = PRIMARY_RECORD        Record Attributes =  NULL_BITMAP VARIABLE_COLUMNS
Record Size = 1026                  
Memory Dump @0x000000C8DD7F9416

0000000000000000:   3000f503 05000000 61202020 20202020 20202020  0.õ.....a           
0000000000000014:   20202020 20202020 20202020 20202020 20202020                      
0000000000000028:   20202020 20202020 20202020 20202020 20202020                      
000000000000003C:   20202020 20202020 20202020 20202020 20202020                      
0000000000000050:   20202020 20202020 20202020 20202020 20202020                      
0000000000000064:   20202020 20202020 20202020 20202020 20202020                      
0000000000000078:   20202020 20202020 20202020 20202020 20202020                      
000000000000008C:   20202020 20202020 20202020 20202020 20202020                      
00000000000000A0:   20202020 20202020 20202020 20202020 20202020                      
00000000000000B4:   20202020 20202020 20202020 20202020 20202020                      
00000000000000C8:   20202020 20202020 20202020 20202020 20202020                      
00000000000000DC:   20202020 20202020 20202020 20202020 20202020                      
00000000000000F0:   20202020 20202020 20202020 20202020 20202020                      
0000000000000104:   20202020 20202020 20202020 20202020 20202020                      
0000000000000118:   20202020 20202020 20202020 20202020 20202020                      
000000000000012C:   20202020 20202020 20202020 20202020 20202020                      
0000000000000140:   20202020 20202020 20202020 20202020 20202020                      
0000000000000154:   20202020 20202020 20202020 20202020 20202020                      
0000000000000168:   20202020 20202020 20202020 20202020 20202020                      
000000000000017C:   20202020 20202020 20202020 20202020 20202020                      
0000000000000190:   20202020 20202020 20202020 20202020 20202020                      
00000000000001A4:   20202020 20202020 20202020 20202020 20202020                      
00000000000001B8:   20202020 20202020 20202020 20202020 20202020                      
00000000000001CC:   20202020 20202020 20202020 20202020 20202020                      
00000000000001E0:   20202020 20202020 20202020 20202020 20202020                      
00000000000001F4:   20202020 20202020 20202020 20202020 20202020                      
0000000000000208:   20202020 20202020 20202020 20202020 20202020                      
000000000000021C:   20202020 20202020 20202020 20202020 20202020                      
0000000000000230:   20202020 20202020 20202020 20202020 20202020                      
0000000000000244:   20202020 20202020 20202020 20202020 20202020                      
0000000000000258:   20202020 20202020 20202020 20202020 20202020                      
000000000000026C:   20202020 20202020 20202020 20202020 20202020                      
0000000000000280:   20202020 20202020 20202020 20202020 20202020                      
0000000000000294:   20202020 20202020 20202020 20202020 20202020                      
00000000000002A8:   20202020 20202020 20202020 20202020 20202020                      
00000000000002BC:   20202020 20202020 20202020 20202020 20202020                      
00000000000002D0:   20202020 20202020 20202020 20202020 20202020                      
00000000000002E4:   20202020 20202020 20202020 20202020 20202020                      
00000000000002F8:   20202020 20202020 20202020 20202020 20202020                      
000000000000030C:   20202020 20202020 20202020 20202020 20202020                      
0000000000000320:   20202020 20202020 20202020 20202020 20202020                      
0000000000000334:   20202020 20202020 20202020 20202020 20202020                      
0000000000000348:   20202020 20202020 20202020 20202020 20202020                      
000000000000035C:   20202020 20202020 20202020 20202020 20202020                      
0000000000000370:   20202020 20202020 20202020 20202020 20202020                      
0000000000000384:   20202020 20202020 20202020 20202020 20202020                      
0000000000000398:   20202020 20202020 20202020 20202020 20202020                      
00000000000003AC:   20202020 20202020 20202020 20202020 20202020                      
00000000000003C0:   20202020 20202020 20202020 20202020 20202020                      
00000000000003D4:   20202020 20202020 20202020 20202020 20202020                      
00000000000003E8:   20202020 20202020 01180100 00050000 02000004          ............
00000000000003FC:   02046200 6300                                 ..b.c. 

Slot 1 Column 1 Offset 0x4 Length 4 Length (physical) 4

x = 5                               

Slot 1 Column 2 Offset 0x8 Length 1000 Length (physical) 1000

a = a                                                                                                            
                                                                                                                 
                                                                                                                 
                                                                                                                 
                                                                                                                 
                                                                                                                 
                                                                                                                 
                                                                                                                 
                                                                                                    

Slot 1 Column 3 Offset 0x3fe Length 2 Length (physical) 2

y = b                               

Slot 1 Column 4 Offset 0x400 Length 2 Length (physical) 2

y1 = c                              

Slot 1 Column 5 Offset 0x3f0 Length 5 Length (physical) 5

z = 2.80                            

Slot 1 Offset 0x0 Length 0 Length (physical) 0

KeyHashValue = (59855d342c69)       


DBCC execution completed. If DBCC printed error messages, contact your system administrator.

Completion time: 2021-06-19T15:06:11.7841732+01:00
