
PAGE: (1:8504)


BUFFER:


BUF @0x000002A500006000

bpage = 0x000002A9E70B4000          bPmmpage = 0x0000000000000000       bsort_r_nextbP = 0x000002A500005F50
bsort_r_prevbP = 0x000002A500005F40 bhash = 0x0000000000000000          bpageno = (1:8504)
bpart = 2                           ckptGen = 0x0000000000000000        bDirtyRefCount = 0
bstat = 0x109                       breferences = 0                     berrcode = 0
bUse1 = 53158                       bstat2 = 0x0                        blog = 0x2121cc8a
bsampleCount = 0                    bIoCount = 0                        resPoolId = 0
bcputicks = 0                       bReadMicroSec = 9858                bDirtyContext = 0x0000000000000000
bDbPageBroker = 0x0000000000000000  bdbid = 11                          bpru = 0x000002A9E2A18040

PAGE HEADER:


Page @0x000002A9E70B4000

m_pageId = (1:8504)                 m_headerVersion = 1                 m_type = 1
m_typeFlagBits = 0x0                m_level = 0                         m_flagBits = 0x200
m_objId (AllocUnitId.idObj) = 203   m_indexId (AllocUnitId.idInd) = 256 
Metadata: AllocUnitId = 72057594051231744                                
Metadata: PartitionId = 72057594044547072                                Metadata: IndexId = 1
Metadata: ObjectId = 1253579504     m_prevPage = (0:0)                  m_nextPage = (1:8506)
pminlen = 1013                      m_slotCnt = 1                       m_freeCnt = 7068
m_freeData = 7278                   m_reservedCnt = 0                   m_lsn = (328:120:48)
m_xactReserved = 0                  m_xdesId = (0:0)                    m_ghostRecCnt = 0
m_tornBits = 1537883127             DB Frag ID = 1                      

Allocation Status

GAM (1:2) = ALLOCATED               SGAM (1:3) = NOT ALLOCATED          
PFS (1:8088) = 0x40 ALLOCATED   0_PCT_FULL                               DIFF (1:6) = CHANGED
ML (1:7) = NOT MIN_LOGGED           

Slot 0 Offset 0x60 Length 1026

Record Type = PRIMARY_RECORD        Record Attributes =  NULL_BITMAP VARIABLE_COLUMNS
Record Size = 1026                  
Memory Dump @0x000000C8E1BF8060

0000000000000000:   3000f503 01000000 61202020 20202020 20202020  0.õ.....a           
0000000000000014:   20202020 20202020 20202020 20202020 20202020                      
0000000000000028:   20202020 20202020 20202020 20202020 20202020                      
000000000000003C:   20202020 20202020 20202020 20202020 20202020                      
0000000000000050:   20202020 20202020 20202020 20202020 20202020                      
0000000000000064:   20202020 20202020 20202020 20202020 20202020                      
0000000000000078:   20202020 20202020 20202020 20202020 20202020                      
000000000000008C:   20202020 20202020 20202020 20202020 20202020                      
00000000000000A0:   20202020 20202020 20202020 20202020 20202020                      
00000000000000B4:   20202020 20202020 20202020 20202020 20202020                      
00000000000000C8:   20202020 20202020 20202020 20202020 20202020                      
00000000000000DC:   20202020 20202020 20202020 20202020 20202020                      
00000000000000F0:   20202020 20202020 20202020 20202020 20202020                      
0000000000000104:   20202020 20202020 20202020 20202020 20202020                      
0000000000000118:   20202020 20202020 20202020 20202020 20202020                      
000000000000012C:   20202020 20202020 20202020 20202020 20202020                      
0000000000000140:   20202020 20202020 20202020 20202020 20202020                      
0000000000000154:   20202020 20202020 20202020 20202020 20202020                      
0000000000000168:   20202020 20202020 20202020 20202020 20202020                      
000000000000017C:   20202020 20202020 20202020 20202020 20202020                      
0000000000000190:   20202020 20202020 20202020 20202020 20202020                      
00000000000001A4:   20202020 20202020 20202020 20202020 20202020                      
00000000000001B8:   20202020 20202020 20202020 20202020 20202020                      
00000000000001CC:   20202020 20202020 20202020 20202020 20202020                      
00000000000001E0:   20202020 20202020 20202020 20202020 20202020                      
00000000000001F4:   20202020 20202020 20202020 20202020 20202020                      
0000000000000208:   20202020 20202020 20202020 20202020 20202020                      
000000000000021C:   20202020 20202020 20202020 20202020 20202020                      
0000000000000230:   20202020 20202020 20202020 20202020 20202020                      
0000000000000244:   20202020 20202020 20202020 20202020 20202020                      
0000000000000258:   20202020 20202020 20202020 20202020 20202020                      
000000000000026C:   20202020 20202020 20202020 20202020 20202020                      
0000000000000280:   20202020 20202020 20202020 20202020 20202020                      
0000000000000294:   20202020 20202020 20202020 20202020 20202020                      
00000000000002A8:   20202020 20202020 20202020 20202020 20202020                      
00000000000002BC:   20202020 20202020 20202020 20202020 20202020                      
00000000000002D0:   20202020 20202020 20202020 20202020 20202020                      
00000000000002E4:   20202020 20202020 20202020 20202020 20202020                      
00000000000002F8:   20202020 20202020 20202020 20202020 20202020                      
000000000000030C:   20202020 20202020 20202020 20202020 20202020                      
0000000000000320:   20202020 20202020 20202020 20202020 20202020                      
0000000000000334:   20202020 20202020 20202020 20202020 20202020                      
0000000000000348:   20202020 20202020 20202020 20202020 20202020                      
000000000000035C:   20202020 20202020 20202020 20202020 20202020                      
0000000000000370:   20202020 20202020 20202020 20202020 20202020                      
0000000000000384:   20202020 20202020 20202020 20202020 20202020                      
0000000000000398:   20202020 20202020 20202020 20202020 20202020                      
00000000000003AC:   20202020 20202020 20202020 20202020 20202020                      
00000000000003C0:   20202020 20202020 20202020 20202020 20202020                      
00000000000003D4:   20202020 20202020 20202020 20202020 20202020                      
00000000000003E8:   20202020 20202020 01180100 00050000 02000004          ............
00000000000003FC:   02046200 6300                                 ..b.c. 

Slot 0 Column 1 Offset 0x4 Length 4 Length (physical) 4

x = 1                               

Slot 0 Column 2 Offset 0x8 Length 1000 Length (physical) 1000

a = a                                                                                                            
                                                                                                                 
                                                                                                                 
                                                                                                                 
                                                                                                                 
                                                                                                                 
                                                                                                                 
                                                                                                                 
                                                                                                    

Slot 0 Column 3 Offset 0x3fe Length 2 Length (physical) 2

y = b                               

Slot 0 Column 4 Offset 0x400 Length 2 Length (physical) 2

y1 = c                              

Slot 0 Column 5 Offset 0x3f0 Length 5 Length (physical) 5

z = 2.80                            

Slot 0 Offset 0x0 Length 0 Length (physical) 0

KeyHashValue = (8194443284a0)       


DBCC execution completed. If DBCC printed error messages, contact your system administrator.

Completion time: 2021-06-19T15:00:49.4619228+01:00
